{
  "contracts/Area.sol": {
    "Area": {
      "abi": [
        {
          "inputs": [
            {
              "internalType": "uint256",
              "name": "_length",
              "type": "uint256"
            },
            {
              "internalType": "uint256",
              "name": "_width",
              "type": "uint256"
            }
          ],
          "name": "AreaOfARectangle",
          "outputs": [
            {
              "internalType": "uint256",
              "name": "",
              "type": "uint256"
            }
          ],
          "stateMutability": "pure",
          "type": "function"
        },
        {
          "inputs": [
            {
              "internalType": "uint256",
              "name": "_numberOfSides",
              "type": "uint256"
            }
          ],
          "name": "AreaOfASquare",
          "outputs": [
            {
              "internalType": "uint256",
              "name": "AreaOf",
              "type": "uint256"
            }
          ],
          "stateMutability": "pure",
          "type": "function"
        },
        {
          "inputs": [
            {
              "internalType": "uint256",
              "name": "_base",
              "type": "uint256"
            },
            {
              "internalType": "uint256",
              "name": "_height",
              "type": "uint256"
            }
          ],
          "name": "AreaOfATriangle",
          "outputs": [
            {
              "internalType": "uint256",
              "name": "AreaOf",
              "type": "uint256"
            }
          ],
          "stateMutability": "pure",
          "type": "function"
        }
      ],
      "evm": {
        "bytecode": {
          "linkReferences": {},
          "object": "608060405234801561001057600080fd5b5061048d806100206000396000f3fe608060405234801561001057600080fd5b50600436106100415760003560e01c8063295a2ec41461004657806374d05a5814610076578063f5afe4dc146100a6575b600080fd5b610060600480360381019061005b9190610164565b6100d6565b60405161006d91906101b3565b60405180910390f35b610090600480360381019061008b91906101ce565b6100f8565b60405161009d91906101b3565b60405180910390f35b6100c060048036038101906100bb9190610164565b61010e565b6040516100cd91906101b3565b60405180910390f35b6000600282846100e6919061022a565b6100f0919061029b565b905092915050565b6000600282610107919061040c565b9050919050565b600080828461011d919061022a565b90508091505092915050565b600080fd5b6000819050919050565b6101418161012e565b811461014c57600080fd5b50565b60008135905061015e81610138565b92915050565b6000806040838503121561017b5761017a610129565b5b60006101898582860161014f565b925050602061019a8582860161014f565b9150509250929050565b6101ad8161012e565b82525050565b60006020820190506101c860008301846101a4565b92915050565b6000602082840312156101e4576101e3610129565b5b60006101f28482850161014f565b91505092915050565b7f4e487b7100000000000000000000000000000000000000000000000000000000600052601160045260246000fd5b60006102358261012e565b91506102408361012e565b925082820261024e8161012e565b91508282048414831517610265576102646101fb565b5b5092915050565b7f4e487b7100000000000000000000000000000000000000000000000000000000600052601260045260246000fd5b60006102a68261012e565b91506102b18361012e565b9250826102c1576102c061026c565b5b828204905092915050565b60008160011c9050919050565b6000808291508390505b6001851115610323578086048111156102ff576102fe6101fb565b5b600185161561030e5780820291505b808102905061031c856102cc565b94506102e3565b94509492505050565b60008261033c57600190506103f8565b8161034a57600090506103f8565b8160018114610360576002811461036a57610399565b60019150506103f8565b60ff84111561037c5761037b6101fb565b5b8360020a915084821115610393576103926101fb565b5b506103f8565b5060208310610133831016604e8410600b84101617156103ce5782820a9050838111156103c9576103c86101fb565b5b6103f8565b6103db84848460016102d9565b925090508184048111156103f2576103f16101fb565b5b81810290505b9392505050565b600060ff82169050919050565b60006104178261012e565b9150610422836103ff565b925061044f7fffffffffffffffffffffffffffffffffffffffffffffffffffffffffffffffff848461032c565b90509291505056fea2646970667358221220284721067ed67bed81f3833b190790dff65a305eb066fdde55e47acb1033f4b864736f6c63430008180033",
          "opcodes": "PUSH1 0x80 PUSH1 0x40 MSTORE CALLVALUE DUP1 ISZERO PUSH2 0x10 JUMPI PUSH1 0x0 DUP1 REVERT JUMPDEST POP PUSH2 0x48D DUP1 PUSH2 0x20 PUSH1 0x0 CODECOPY PUSH1 0x0 RETURN INVALID PUSH1 0x80 PUSH1 0x40 MSTORE CALLVALUE DUP1 ISZERO PUSH2 0x10 JUMPI PUSH1 0x0 DUP1 REVERT JUMPDEST POP PUSH1 0x4 CALLDATASIZE LT PUSH2 0x41 JUMPI PUSH1 0x0 CALLDATALOAD PUSH1 0xE0 SHR DUP1 PUSH4 0x295A2EC4 EQ PUSH2 0x46 JUMPI DUP1 PUSH4 0x74D05A58 EQ PUSH2 0x76 JUMPI DUP1 PUSH4 0xF5AFE4DC EQ PUSH2 0xA6 JUMPI JUMPDEST PUSH1 0x0 DUP1 REVERT JUMPDEST PUSH2 0x60 PUSH1 0x4 DUP1 CALLDATASIZE SUB DUP2 ADD SWAP1 PUSH2 0x5B SWAP2 SWAP1 PUSH2 0x164 JUMP JUMPDEST PUSH2 0xD6 JUMP JUMPDEST PUSH1 0x40 MLOAD PUSH2 0x6D SWAP2 SWAP1 PUSH2 0x1B3 JUMP JUMPDEST PUSH1 0x40 MLOAD DUP1 SWAP2 SUB SWAP1 RETURN JUMPDEST PUSH2 0x90 PUSH1 0x4 DUP1 CALLDATASIZE SUB DUP2 ADD SWAP1 PUSH2 0x8B SWAP2 SWAP1 PUSH2 0x1CE JUMP JUMPDEST PUSH2 0xF8 JUMP JUMPDEST PUSH1 0x40 MLOAD PUSH2 0x9D SWAP2 SWAP1 PUSH2 0x1B3 JUMP JUMPDEST PUSH1 0x40 MLOAD DUP1 SWAP2 SUB SWAP1 RETURN JUMPDEST PUSH2 0xC0 PUSH1 0x4 DUP1 CALLDATASIZE SUB DUP2 ADD SWAP1 PUSH2 0xBB SWAP2 SWAP1 PUSH2 0x164 JUMP JUMPDEST PUSH2 0x10E JUMP JUMPDEST PUSH1 0x40 MLOAD PUSH2 0xCD SWAP2 SWAP1 PUSH2 0x1B3 JUMP JUMPDEST PUSH1 0x40 MLOAD DUP1 SWAP2 SUB SWAP1 RETURN JUMPDEST PUSH1 0x0 PUSH1 0x2 DUP3 DUP5 PUSH2 0xE6 SWAP2 SWAP1 PUSH2 0x22A JUMP JUMPDEST PUSH2 0xF0 SWAP2 SWAP1 PUSH2 0x29B JUMP JUMPDEST SWAP1 POP SWAP3 SWAP2 POP POP JUMP JUMPDEST PUSH1 0x0 PUSH1 0x2 DUP3 PUSH2 0x107 SWAP2 SWAP1 PUSH2 0x40C JUMP JUMPDEST SWAP1 POP SWAP2 SWAP1 POP JUMP JUMPDEST PUSH1 0x0 DUP1 DUP3 DUP5 PUSH2 0x11D SWAP2 SWAP1 PUSH2 0x22A JUMP JUMPDEST SWAP1 POP DUP1 SWAP2 POP POP SWAP3 SWAP2 POP POP JUMP JUMPDEST PUSH1 0x0 DUP1 REVERT JUMPDEST PUSH1 0x0 DUP2 SWAP1 POP SWAP2 SWAP1 POP JUMP JUMPDEST PUSH2 0x141 DUP2 PUSH2 0x12E JUMP JUMPDEST DUP2 EQ PUSH2 0x14C JUMPI PUSH1 0x0 DUP1 REVERT JUMPDEST POP JUMP JUMPDEST PUSH1 0x0 DUP2 CALLDATALOAD SWAP1 POP PUSH2 0x15E DUP2 PUSH2 0x138 JUMP JUMPDEST SWAP3 SWAP2 POP POP JUMP JUMPDEST PUSH1 0x0 DUP1 PUSH1 0x40 DUP4 DUP6 SUB SLT ISZERO PUSH2 0x17B JUMPI PUSH2 0x17A PUSH2 0x129 JUMP JUMPDEST JUMPDEST PUSH1 0x0 PUSH2 0x189 DUP6 DUP3 DUP7 ADD PUSH2 0x14F JUMP JUMPDEST SWAP3 POP POP PUSH1 0x20 PUSH2 0x19A DUP6 DUP3 DUP7 ADD PUSH2 0x14F JUMP JUMPDEST SWAP2 POP POP SWAP3 POP SWAP3 SWAP1 POP JUMP JUMPDEST PUSH2 0x1AD DUP2 PUSH2 0x12E JUMP JUMPDEST DUP3 MSTORE POP POP JUMP JUMPDEST PUSH1 0x0 PUSH1 0x20 DUP3 ADD SWAP1 POP PUSH2 0x1C8 PUSH1 0x0 DUP4 ADD DUP5 PUSH2 0x1A4 JUMP JUMPDEST SWAP3 SWAP2 POP POP JUMP JUMPDEST PUSH1 0x0 PUSH1 0x20 DUP3 DUP5 SUB SLT ISZERO PUSH2 0x1E4 JUMPI PUSH2 0x1E3 PUSH2 0x129 JUMP JUMPDEST JUMPDEST PUSH1 0x0 PUSH2 0x1F2 DUP5 DUP3 DUP6 ADD PUSH2 0x14F JUMP JUMPDEST SWAP2 POP POP SWAP3 SWAP2 POP POP JUMP JUMPDEST PUSH32 0x4E487B7100000000000000000000000000000000000000000000000000000000 PUSH1 0x0 MSTORE PUSH1 0x11 PUSH1 0x4 MSTORE PUSH1 0x24 PUSH1 0x0 REVERT JUMPDEST PUSH1 0x0 PUSH2 0x235 DUP3 PUSH2 0x12E JUMP JUMPDEST SWAP2 POP PUSH2 0x240 DUP4 PUSH2 0x12E JUMP JUMPDEST SWAP3 POP DUP3 DUP3 MUL PUSH2 0x24E DUP2 PUSH2 0x12E JUMP JUMPDEST SWAP2 POP DUP3 DUP3 DIV DUP5 EQ DUP4 ISZERO OR PUSH2 0x265 JUMPI PUSH2 0x264 PUSH2 0x1FB JUMP JUMPDEST JUMPDEST POP SWAP3 SWAP2 POP POP JUMP JUMPDEST PUSH32 0x4E487B7100000000000000000000000000000000000000000000000000000000 PUSH1 0x0 MSTORE PUSH1 0x12 PUSH1 0x4 MSTORE PUSH1 0x24 PUSH1 0x0 REVERT JUMPDEST PUSH1 0x0 PUSH2 0x2A6 DUP3 PUSH2 0x12E JUMP JUMPDEST SWAP2 POP PUSH2 0x2B1 DUP4 PUSH2 0x12E JUMP JUMPDEST SWAP3 POP DUP3 PUSH2 0x2C1 JUMPI PUSH2 0x2C0 PUSH2 0x26C JUMP JUMPDEST JUMPDEST DUP3 DUP3 DIV SWAP1 POP SWAP3 SWAP2 POP POP JUMP JUMPDEST PUSH1 0x0 DUP2 PUSH1 0x1 SHR SWAP1 POP SWAP2 SWAP1 POP JUMP JUMPDEST PUSH1 0x0 DUP1 DUP3 SWAP2 POP DUP4 SWAP1 POP JUMPDEST PUSH1 0x1 DUP6 GT ISZERO PUSH2 0x323 JUMPI DUP1 DUP7 DIV DUP2 GT ISZERO PUSH2 0x2FF JUMPI PUSH2 0x2FE PUSH2 0x1FB JUMP JUMPDEST JUMPDEST PUSH1 0x1 DUP6 AND ISZERO PUSH2 0x30E JUMPI DUP1 DUP3 MUL SWAP2 POP JUMPDEST DUP1 DUP2 MUL SWAP1 POP PUSH2 0x31C DUP6 PUSH2 0x2CC JUMP JUMPDEST SWAP5 POP PUSH2 0x2E3 JUMP JUMPDEST SWAP5 POP SWAP5 SWAP3 POP POP POP JUMP JUMPDEST PUSH1 0x0 DUP3 PUSH2 0x33C JUMPI PUSH1 0x1 SWAP1 POP PUSH2 0x3F8 JUMP JUMPDEST DUP2 PUSH2 0x34A JUMPI PUSH1 0x0 SWAP1 POP PUSH2 0x3F8 JUMP JUMPDEST DUP2 PUSH1 0x1 DUP2 EQ PUSH2 0x360 JUMPI PUSH1 0x2 DUP2 EQ PUSH2 0x36A JUMPI PUSH2 0x399 JUMP JUMPDEST PUSH1 0x1 SWAP2 POP POP PUSH2 0x3F8 JUMP JUMPDEST PUSH1 0xFF DUP5 GT ISZERO PUSH2 0x37C JUMPI PUSH2 0x37B PUSH2 0x1FB JUMP JUMPDEST JUMPDEST DUP4 PUSH1 0x2 EXP SWAP2 POP DUP5 DUP3 GT ISZERO PUSH2 0x393 JUMPI PUSH2 0x392 PUSH2 0x1FB JUMP JUMPDEST JUMPDEST POP PUSH2 0x3F8 JUMP JUMPDEST POP PUSH1 0x20 DUP4 LT PUSH2 0x133 DUP4 LT AND PUSH1 0x4E DUP5 LT PUSH1 0xB DUP5 LT AND OR ISZERO PUSH2 0x3CE JUMPI DUP3 DUP3 EXP SWAP1 POP DUP4 DUP2 GT ISZERO PUSH2 0x3C9 JUMPI PUSH2 0x3C8 PUSH2 0x1FB JUMP JUMPDEST JUMPDEST PUSH2 0x3F8 JUMP JUMPDEST PUSH2 0x3DB DUP5 DUP5 DUP5 PUSH1 0x1 PUSH2 0x2D9 JUMP JUMPDEST SWAP3 POP SWAP1 POP DUP2 DUP5 DIV DUP2 GT ISZERO PUSH2 0x3F2 JUMPI PUSH2 0x3F1 PUSH2 0x1FB JUMP JUMPDEST JUMPDEST DUP2 DUP2 MUL SWAP1 POP JUMPDEST SWAP4 SWAP3 POP POP POP JUMP JUMPDEST PUSH1 0x0 PUSH1 0xFF DUP3 AND SWAP1 POP SWAP2 SWAP1 POP JUMP JUMPDEST PUSH1 0x0 PUSH2 0x417 DUP3 PUSH2 0x12E JUMP JUMPDEST SWAP2 POP PUSH2 0x422 DUP4 PUSH2 0x3FF JUMP JUMPDEST SWAP3 POP PUSH2 0x44F PUSH32 0xFFFFFFFFFFFFFFFFFFFFFFFFFFFFFFFFFFFFFFFFFFFFFFFFFFFFFFFFFFFFFFFF DUP5 DUP5 PUSH2 0x32C JUMP JUMPDEST SWAP1 POP SWAP3 SWAP2 POP POP JUMP INVALID LOG2 PUSH5 0x6970667358 0x22 SLT KECCAK256 0x28 SELFBALANCE 0x21 MOD PUSH31 0xD67BED81F3833B190790DFF65A305EB066FDDE55E47ACB1033F4B864736F6C PUSH4 0x43000818 STOP CALLER "
        },
        "methodIdentifiers": {
          "AreaOfARectangle(uint256,uint256)": "f5afe4dc",
          "AreaOfASquare(uint256)": "74d05a58",
          "AreaOfATriangle(uint256,uint256)": "295a2ec4"
        }
      }
    }
  }
}