{
  "_format": "hh-sol-artifact-1",
  "contractName": "Area",
  "sourceName": "contracts/Area.sol",
  "abi": [
    {
      "inputs": [
        {
          "internalType": "uint256",
          "name": "_length",
          "type": "uint256"
        },
        {
          "internalType": "uint256",
          "name": "_width",
          "type": "uint256"
        }
      ],
      "name": "AreaOfARectangle",
      "outputs": [
        {
          "internalType": "uint256",
          "name": "",
          "type": "uint256"
        }
      ],
      "stateMutability": "pure",
      "type": "function"
    },
    {
      "inputs": [
        {
          "internalType": "uint256",
          "name": "_numberOfSides",
          "type": "uint256"
        }
      ],
      "name": "AreaOfASquare",
      "outputs": [
        {
          "internalType": "uint256",
          "name": "AreaOf",
          "type": "uint256"
        }
      ],
      "stateMutability": "pure",
      "type": "function"
    },
    {
      "inputs": [
        {
          "internalType": "uint256",
          "name": "_base",
          "type": "uint256"
        },
        {
          "internalType": "uint256",
          "name": "_height",
          "type": "uint256"
        }
      ],
      "name": "AreaOfATriangle",
      "outputs": [
        {
          "internalType": "uint256",
          "name": "AreaOf",
          "type": "uint256"
        }
      ],
      "stateMutability": "pure",
      "type": "function"
    }
  ],
  "bytecode": "0x608060405234801561001057600080fd5b5061048d806100206000396000f3fe608060405234801561001057600080fd5b50600436106100415760003560e01c8063295a2ec41461004657806374d05a5814610076578063f5afe4dc146100a6575b600080fd5b610060600480360381019061005b9190610164565b6100d6565b60405161006d91906101b3565b60405180910390f35b610090600480360381019061008b91906101ce565b6100f8565b60405161009d91906101b3565b60405180910390f35b6100c060048036038101906100bb9190610164565b61010e565b6040516100cd91906101b3565b60405180910390f35b6000600282846100e6919061022a565b6100f0919061029b565b905092915050565b6000600282610107919061040c565b9050919050565b600080828461011d919061022a565b90508091505092915050565b600080fd5b6000819050919050565b6101418161012e565b811461014c57600080fd5b50565b60008135905061015e81610138565b92915050565b6000806040838503121561017b5761017a610129565b5b60006101898582860161014f565b925050602061019a8582860161014f565b9150509250929050565b6101ad8161012e565b82525050565b60006020820190506101c860008301846101a4565b92915050565b6000602082840312156101e4576101e3610129565b5b60006101f28482850161014f565b91505092915050565b7f4e487b7100000000000000000000000000000000000000000000000000000000600052601160045260246000fd5b60006102358261012e565b91506102408361012e565b925082820261024e8161012e565b91508282048414831517610265576102646101fb565b5b5092915050565b7f4e487b7100000000000000000000000000000000000000000000000000000000600052601260045260246000fd5b60006102a68261012e565b91506102b18361012e565b9250826102c1576102c061026c565b5b828204905092915050565b60008160011c9050919050565b6000808291508390505b6001851115610323578086048111156102ff576102fe6101fb565b5b600185161561030e5780820291505b808102905061031c856102cc565b94506102e3565b94509492505050565b60008261033c57600190506103f8565b8161034a57600090506103f8565b8160018114610360576002811461036a57610399565b60019150506103f8565b60ff84111561037c5761037b6101fb565b5b8360020a915084821115610393576103926101fb565b5b506103f8565b5060208310610133831016604e8410600b84101617156103ce5782820a9050838111156103c9576103c86101fb565b5b6103f8565b6103db84848460016102d9565b925090508184048111156103f2576103f16101fb565b5b81810290505b9392505050565b600060ff82169050919050565b60006104178261012e565b9150610422836103ff565b925061044f7fffffffffffffffffffffffffffffffffffffffffffffffffffffffffffffffff848461032c565b90509291505056fea2646970667358221220284721067ed67bed81f3833b190790dff65a305eb066fdde55e47acb1033f4b864736f6c63430008180033",
  "linkReferences": {},
  "deployedLinkReferences": {}
}