{
  "contracts/Area.sol": {
    "Area": {
      "abi": [
        {
          "inputs": [
            {
              "internalType": "uint256",
              "name": "_length",
              "type": "uint256"
            },
            {
              "internalType": "uint256",
              "name": "_width",
              "type": "uint256"
            }
          ],
          "name": "AreaOfARectangle",
          "outputs": [
            {
              "internalType": "uint256",
              "name": "",
              "type": "uint256"
            }
          ],
          "stateMutability": "nonpayable",
          "type": "function"
        },
        {
          "inputs": [
            {
              "internalType": "uint256",
              "name": "_numberOfSides",
              "type": "uint256"
            }
          ],
          "name": "AreaOfASquare",
          "outputs": [
            {
              "internalType": "uint256",
              "name": "AreaOf",
              "type": "uint256"
            }
          ],
          "stateMutability": "nonpayable",
          "type": "function"
        },
        {
          "inputs": [
            {
              "internalType": "uint256",
              "name": "_base",
              "type": "uint256"
            },
            {
              "internalType": "uint256",
              "name": "_height",
              "type": "uint256"
            }
          ],
          "name": "AreaOfATriangle",
          "outputs": [
            {
              "internalType": "uint256",
              "name": "AreaOf",
              "type": "uint256"
            }
          ],
          "stateMutability": "nonpayable",
          "type": "function"
        },
        {
          "inputs": [],
          "name": "base",
          "outputs": [
            {
              "internalType": "uint256",
              "name": "",
              "type": "uint256"
            }
          ],
          "stateMutability": "view",
          "type": "function"
        },
        {
          "inputs": [],
          "name": "height",
          "outputs": [
            {
              "internalType": "uint256",
              "name": "",
              "type": "uint256"
            }
          ],
          "stateMutability": "view",
          "type": "function"
        },
        {
          "inputs": [],
          "name": "length",
          "outputs": [
            {
              "internalType": "uint256",
              "name": "",
              "type": "uint256"
            }
          ],
          "stateMutability": "view",
          "type": "function"
        },
        {
          "inputs": [],
          "name": "numberOfSides",
          "outputs": [
            {
              "internalType": "uint256",
              "name": "",
              "type": "uint256"
            }
          ],
          "stateMutability": "view",
          "type": "function"
        },
        {
          "inputs": [],
          "name": "width",
          "outputs": [
            {
              "internalType": "uint256",
              "name": "",
              "type": "uint256"
            }
          ],
          "stateMutability": "view",
          "type": "function"
        }
      ],
      "evm": {
        "bytecode": {
          "linkReferences": {},
          "object": "608060405234801561001057600080fd5b506105b6806100206000396000f3fe608060405234801561001057600080fd5b50600436106100885760003560e01c80635001f3b51161005b5780635001f3b51461011757806374d05a58146101355780639ededf7714610165578063f5afe4dc1461018357610088565b80630ef267431461008d5780631f376b53146100ab5780631f7b6d32146100c9578063295a2ec4146100e7575b600080fd5b6100956101b3565b6040516100a2919061026b565b60405180910390f35b6100b36101b9565b6040516100c0919061026b565b60405180910390f35b6100d16101bf565b6040516100de919061026b565b60405180910390f35b61010160048036038101906100fc91906102b7565b6101c5565b60405161010e919061026b565b60405180910390f35b61011f6101f9565b60405161012c919061026b565b60405180910390f35b61014f600480360381019061014a91906102f7565b6101ff565b60405161015c919061026b565b60405180910390f35b61016d61021e565b60405161017a919061026b565b60405180910390f35b61019d600480360381019061019891906102b7565b610224565b6040516101aa919061026b565b60405180910390f35b60015481565b60045481565b60025481565b6000826000819055508160018190555060026001546000546101e79190610353565b6101f191906103c4565b905092915050565b60005481565b60008160048190555060026004546102179190610535565b9050919050565b60035481565b6000826002819055508160038190555060006003546002546102469190610353565b90508091505092915050565b6000819050919050565b61026581610252565b82525050565b6000602082019050610280600083018461025c565b92915050565b600080fd5b61029481610252565b811461029f57600080fd5b50565b6000813590506102b18161028b565b92915050565b600080604083850312156102ce576102cd610286565b5b60006102dc858286016102a2565b92505060206102ed858286016102a2565b9150509250929050565b60006020828403121561030d5761030c610286565b5b600061031b848285016102a2565b91505092915050565b7f4e487b7100000000000000000000000000000000000000000000000000000000600052601160045260246000fd5b600061035e82610252565b915061036983610252565b925082820261037781610252565b9150828204841483151761038e5761038d610324565b5b5092915050565b7f4e487b7100000000000000000000000000000000000000000000000000000000600052601260045260246000fd5b60006103cf82610252565b91506103da83610252565b9250826103ea576103e9610395565b5b828204905092915050565b60008160011c9050919050565b6000808291508390505b600185111561044c5780860481111561042857610427610324565b5b60018516156104375780820291505b8081029050610445856103f5565b945061040c565b94509492505050565b6000826104655760019050610521565b816104735760009050610521565b81600181146104895760028114610493576104c2565b6001915050610521565b60ff8411156104a5576104a4610324565b5b8360020a9150848211156104bc576104bb610324565b5b50610521565b5060208310610133831016604e8410600b84101617156104f75782820a9050838111156104f2576104f1610324565b5b610521565b6105048484846001610402565b9250905081840481111561051b5761051a610324565b5b81810290505b9392505050565b600060ff82169050919050565b600061054082610252565b915061054b83610528565b92506105787fffffffffffffffffffffffffffffffffffffffffffffffffffffffffffffffff8484610455565b90509291505056fea2646970667358221220c3166125cd657e3588a4da3de42228a77ceebadf861fae6d70c465ae526e966a64736f6c63430008180033",
          "opcodes": "PUSH1 0x80 PUSH1 0x40 MSTORE CALLVALUE DUP1 ISZERO PUSH2 0x10 JUMPI PUSH1 0x0 DUP1 REVERT JUMPDEST POP PUSH2 0x5B6 DUP1 PUSH2 0x20 PUSH1 0x0 CODECOPY PUSH1 0x0 RETURN INVALID PUSH1 0x80 PUSH1 0x40 MSTORE CALLVALUE DUP1 ISZERO PUSH2 0x10 JUMPI PUSH1 0x0 DUP1 REVERT JUMPDEST POP PUSH1 0x4 CALLDATASIZE LT PUSH2 0x88 JUMPI PUSH1 0x0 CALLDATALOAD PUSH1 0xE0 SHR DUP1 PUSH4 0x5001F3B5 GT PUSH2 0x5B JUMPI DUP1 PUSH4 0x5001F3B5 EQ PUSH2 0x117 JUMPI DUP1 PUSH4 0x74D05A58 EQ PUSH2 0x135 JUMPI DUP1 PUSH4 0x9EDEDF77 EQ PUSH2 0x165 JUMPI DUP1 PUSH4 0xF5AFE4DC EQ PUSH2 0x183 JUMPI PUSH2 0x88 JUMP JUMPDEST DUP1 PUSH4 0xEF26743 EQ PUSH2 0x8D JUMPI DUP1 PUSH4 0x1F376B53 EQ PUSH2 0xAB JUMPI DUP1 PUSH4 0x1F7B6D32 EQ PUSH2 0xC9 JUMPI DUP1 PUSH4 0x295A2EC4 EQ PUSH2 0xE7 JUMPI JUMPDEST PUSH1 0x0 DUP1 REVERT JUMPDEST PUSH2 0x95 PUSH2 0x1B3 JUMP JUMPDEST PUSH1 0x40 MLOAD PUSH2 0xA2 SWAP2 SWAP1 PUSH2 0x26B JUMP JUMPDEST PUSH1 0x40 MLOAD DUP1 SWAP2 SUB SWAP1 RETURN JUMPDEST PUSH2 0xB3 PUSH2 0x1B9 JUMP JUMPDEST PUSH1 0x40 MLOAD PUSH2 0xC0 SWAP2 SWAP1 PUSH2 0x26B JUMP JUMPDEST PUSH1 0x40 MLOAD DUP1 SWAP2 SUB SWAP1 RETURN JUMPDEST PUSH2 0xD1 PUSH2 0x1BF JUMP JUMPDEST PUSH1 0x40 MLOAD PUSH2 0xDE SWAP2 SWAP1 PUSH2 0x26B JUMP JUMPDEST PUSH1 0x40 MLOAD DUP1 SWAP2 SUB SWAP1 RETURN JUMPDEST PUSH2 0x101 PUSH1 0x4 DUP1 CALLDATASIZE SUB DUP2 ADD SWAP1 PUSH2 0xFC SWAP2 SWAP1 PUSH2 0x2B7 JUMP JUMPDEST PUSH2 0x1C5 JUMP JUMPDEST PUSH1 0x40 MLOAD PUSH2 0x10E SWAP2 SWAP1 PUSH2 0x26B JUMP JUMPDEST PUSH1 0x40 MLOAD DUP1 SWAP2 SUB SWAP1 RETURN JUMPDEST PUSH2 0x11F PUSH2 0x1F9 JUMP JUMPDEST PUSH1 0x40 MLOAD PUSH2 0x12C SWAP2 SWAP1 PUSH2 0x26B JUMP JUMPDEST PUSH1 0x40 MLOAD DUP1 SWAP2 SUB SWAP1 RETURN JUMPDEST PUSH2 0x14F PUSH1 0x4 DUP1 CALLDATASIZE SUB DUP2 ADD SWAP1 PUSH2 0x14A SWAP2 SWAP1 PUSH2 0x2F7 JUMP JUMPDEST PUSH2 0x1FF JUMP JUMPDEST PUSH1 0x40 MLOAD PUSH2 0x15C SWAP2 SWAP1 PUSH2 0x26B JUMP JUMPDEST PUSH1 0x40 MLOAD DUP1 SWAP2 SUB SWAP1 RETURN JUMPDEST PUSH2 0x16D PUSH2 0x21E JUMP JUMPDEST PUSH1 0x40 MLOAD PUSH2 0x17A SWAP2 SWAP1 PUSH2 0x26B JUMP JUMPDEST PUSH1 0x40 MLOAD DUP1 SWAP2 SUB SWAP1 RETURN JUMPDEST PUSH2 0x19D PUSH1 0x4 DUP1 CALLDATASIZE SUB DUP2 ADD SWAP1 PUSH2 0x198 SWAP2 SWAP1 PUSH2 0x2B7 JUMP JUMPDEST PUSH2 0x224 JUMP JUMPDEST PUSH1 0x40 MLOAD PUSH2 0x1AA SWAP2 SWAP1 PUSH2 0x26B JUMP JUMPDEST PUSH1 0x40 MLOAD DUP1 SWAP2 SUB SWAP1 RETURN JUMPDEST PUSH1 0x1 SLOAD DUP2 JUMP JUMPDEST PUSH1 0x4 SLOAD DUP2 JUMP JUMPDEST PUSH1 0x2 SLOAD DUP2 JUMP JUMPDEST PUSH1 0x0 DUP3 PUSH1 0x0 DUP2 SWAP1 SSTORE POP DUP2 PUSH1 0x1 DUP2 SWAP1 SSTORE POP PUSH1 0x2 PUSH1 0x1 SLOAD PUSH1 0x0 SLOAD PUSH2 0x1E7 SWAP2 SWAP1 PUSH2 0x353 JUMP JUMPDEST PUSH2 0x1F1 SWAP2 SWAP1 PUSH2 0x3C4 JUMP JUMPDEST SWAP1 POP SWAP3 SWAP2 POP POP JUMP JUMPDEST PUSH1 0x0 SLOAD DUP2 JUMP JUMPDEST PUSH1 0x0 DUP2 PUSH1 0x4 DUP2 SWAP1 SSTORE POP PUSH1 0x2 PUSH1 0x4 SLOAD PUSH2 0x217 SWAP2 SWAP1 PUSH2 0x535 JUMP JUMPDEST SWAP1 POP SWAP2 SWAP1 POP JUMP JUMPDEST PUSH1 0x3 SLOAD DUP2 JUMP JUMPDEST PUSH1 0x0 DUP3 PUSH1 0x2 DUP2 SWAP1 SSTORE POP DUP2 PUSH1 0x3 DUP2 SWAP1 SSTORE POP PUSH1 0x0 PUSH1 0x3 SLOAD PUSH1 0x2 SLOAD PUSH2 0x246 SWAP2 SWAP1 PUSH2 0x353 JUMP JUMPDEST SWAP1 POP DUP1 SWAP2 POP POP SWAP3 SWAP2 POP POP JUMP JUMPDEST PUSH1 0x0 DUP2 SWAP1 POP SWAP2 SWAP1 POP JUMP JUMPDEST PUSH2 0x265 DUP2 PUSH2 0x252 JUMP JUMPDEST DUP3 MSTORE POP POP JUMP JUMPDEST PUSH1 0x0 PUSH1 0x20 DUP3 ADD SWAP1 POP PUSH2 0x280 PUSH1 0x0 DUP4 ADD DUP5 PUSH2 0x25C JUMP JUMPDEST SWAP3 SWAP2 POP POP JUMP JUMPDEST PUSH1 0x0 DUP1 REVERT JUMPDEST PUSH2 0x294 DUP2 PUSH2 0x252 JUMP JUMPDEST DUP2 EQ PUSH2 0x29F JUMPI PUSH1 0x0 DUP1 REVERT JUMPDEST POP JUMP JUMPDEST PUSH1 0x0 DUP2 CALLDATALOAD SWAP1 POP PUSH2 0x2B1 DUP2 PUSH2 0x28B JUMP JUMPDEST SWAP3 SWAP2 POP POP JUMP JUMPDEST PUSH1 0x0 DUP1 PUSH1 0x40 DUP4 DUP6 SUB SLT ISZERO PUSH2 0x2CE JUMPI PUSH2 0x2CD PUSH2 0x286 JUMP JUMPDEST JUMPDEST PUSH1 0x0 PUSH2 0x2DC DUP6 DUP3 DUP7 ADD PUSH2 0x2A2 JUMP JUMPDEST SWAP3 POP POP PUSH1 0x20 PUSH2 0x2ED DUP6 DUP3 DUP7 ADD PUSH2 0x2A2 JUMP JUMPDEST SWAP2 POP POP SWAP3 POP SWAP3 SWAP1 POP JUMP JUMPDEST PUSH1 0x0 PUSH1 0x20 DUP3 DUP5 SUB SLT ISZERO PUSH2 0x30D JUMPI PUSH2 0x30C PUSH2 0x286 JUMP JUMPDEST JUMPDEST PUSH1 0x0 PUSH2 0x31B DUP5 DUP3 DUP6 ADD PUSH2 0x2A2 JUMP JUMPDEST SWAP2 POP POP SWAP3 SWAP2 POP POP JUMP JUMPDEST PUSH32 0x4E487B7100000000000000000000000000000000000000000000000000000000 PUSH1 0x0 MSTORE PUSH1 0x11 PUSH1 0x4 MSTORE PUSH1 0x24 PUSH1 0x0 REVERT JUMPDEST PUSH1 0x0 PUSH2 0x35E DUP3 PUSH2 0x252 JUMP JUMPDEST SWAP2 POP PUSH2 0x369 DUP4 PUSH2 0x252 JUMP JUMPDEST SWAP3 POP DUP3 DUP3 MUL PUSH2 0x377 DUP2 PUSH2 0x252 JUMP JUMPDEST SWAP2 POP DUP3 DUP3 DIV DUP5 EQ DUP4 ISZERO OR PUSH2 0x38E JUMPI PUSH2 0x38D PUSH2 0x324 JUMP JUMPDEST JUMPDEST POP SWAP3 SWAP2 POP POP JUMP JUMPDEST PUSH32 0x4E487B7100000000000000000000000000000000000000000000000000000000 PUSH1 0x0 MSTORE PUSH1 0x12 PUSH1 0x4 MSTORE PUSH1 0x24 PUSH1 0x0 REVERT JUMPDEST PUSH1 0x0 PUSH2 0x3CF DUP3 PUSH2 0x252 JUMP JUMPDEST SWAP2 POP PUSH2 0x3DA DUP4 PUSH2 0x252 JUMP JUMPDEST SWAP3 POP DUP3 PUSH2 0x3EA JUMPI PUSH2 0x3E9 PUSH2 0x395 JUMP JUMPDEST JUMPDEST DUP3 DUP3 DIV SWAP1 POP SWAP3 SWAP2 POP POP JUMP JUMPDEST PUSH1 0x0 DUP2 PUSH1 0x1 SHR SWAP1 POP SWAP2 SWAP1 POP JUMP JUMPDEST PUSH1 0x0 DUP1 DUP3 SWAP2 POP DUP4 SWAP1 POP JUMPDEST PUSH1 0x1 DUP6 GT ISZERO PUSH2 0x44C JUMPI DUP1 DUP7 DIV DUP2 GT ISZERO PUSH2 0x428 JUMPI PUSH2 0x427 PUSH2 0x324 JUMP JUMPDEST JUMPDEST PUSH1 0x1 DUP6 AND ISZERO PUSH2 0x437 JUMPI DUP1 DUP3 MUL SWAP2 POP JUMPDEST DUP1 DUP2 MUL SWAP1 POP PUSH2 0x445 DUP6 PUSH2 0x3F5 JUMP JUMPDEST SWAP5 POP PUSH2 0x40C JUMP JUMPDEST SWAP5 POP SWAP5 SWAP3 POP POP POP JUMP JUMPDEST PUSH1 0x0 DUP3 PUSH2 0x465 JUMPI PUSH1 0x1 SWAP1 POP PUSH2 0x521 JUMP JUMPDEST DUP2 PUSH2 0x473 JUMPI PUSH1 0x0 SWAP1 POP PUSH2 0x521 JUMP JUMPDEST DUP2 PUSH1 0x1 DUP2 EQ PUSH2 0x489 JUMPI PUSH1 0x2 DUP2 EQ PUSH2 0x493 JUMPI PUSH2 0x4C2 JUMP JUMPDEST PUSH1 0x1 SWAP2 POP POP PUSH2 0x521 JUMP JUMPDEST PUSH1 0xFF DUP5 GT ISZERO PUSH2 0x4A5 JUMPI PUSH2 0x4A4 PUSH2 0x324 JUMP JUMPDEST JUMPDEST DUP4 PUSH1 0x2 EXP SWAP2 POP DUP5 DUP3 GT ISZERO PUSH2 0x4BC JUMPI PUSH2 0x4BB PUSH2 0x324 JUMP JUMPDEST JUMPDEST POP PUSH2 0x521 JUMP JUMPDEST POP PUSH1 0x20 DUP4 LT PUSH2 0x133 DUP4 LT AND PUSH1 0x4E DUP5 LT PUSH1 0xB DUP5 LT AND OR ISZERO PUSH2 0x4F7 JUMPI DUP3 DUP3 EXP SWAP1 POP DUP4 DUP2 GT ISZERO PUSH2 0x4F2 JUMPI PUSH2 0x4F1 PUSH2 0x324 JUMP JUMPDEST JUMPDEST PUSH2 0x521 JUMP JUMPDEST PUSH2 0x504 DUP5 DUP5 DUP5 PUSH1 0x1 PUSH2 0x402 JUMP JUMPDEST SWAP3 POP SWAP1 POP DUP2 DUP5 DIV DUP2 GT ISZERO PUSH2 0x51B JUMPI PUSH2 0x51A PUSH2 0x324 JUMP JUMPDEST JUMPDEST DUP2 DUP2 MUL SWAP1 POP JUMPDEST SWAP4 SWAP3 POP POP POP JUMP JUMPDEST PUSH1 0x0 PUSH1 0xFF DUP3 AND SWAP1 POP SWAP2 SWAP1 POP JUMP JUMPDEST PUSH1 0x0 PUSH2 0x540 DUP3 PUSH2 0x252 JUMP JUMPDEST SWAP2 POP PUSH2 0x54B DUP4 PUSH2 0x528 JUMP JUMPDEST SWAP3 POP PUSH2 0x578 PUSH32 0xFFFFFFFFFFFFFFFFFFFFFFFFFFFFFFFFFFFFFFFFFFFFFFFFFFFFFFFFFFFFFFFF DUP5 DUP5 PUSH2 0x455 JUMP JUMPDEST SWAP1 POP SWAP3 SWAP2 POP POP JUMP INVALID LOG2 PUSH5 0x6970667358 0x22 SLT KECCAK256 0xC3 AND PUSH2 0x25CD PUSH6 0x7E3588A4DA3D 0xE4 0x22 0x28 0xA7 PUSH29 0xEEBADF861FAE6D70C465AE526E966A64736F6C63430008180033000000 "
        },
        "methodIdentifiers": {
          "AreaOfARectangle(uint256,uint256)": "f5afe4dc",
          "AreaOfASquare(uint256)": "74d05a58",
          "AreaOfATriangle(uint256,uint256)": "295a2ec4",
          "base()": "5001f3b5",
          "height()": "0ef26743",
          "length()": "1f7b6d32",
          "numberOfSides()": "1f376b53",
          "width()": "9ededf77"
        }
      }
    }
  }
}