{
  "_format": "hh-sol-artifact-1",
  "contractName": "Area",
  "sourceName": "contracts/Area.sol",
  "abi": [
    {
      "inputs": [
        {
          "internalType": "uint256",
          "name": "_length",
          "type": "uint256"
        },
        {
          "internalType": "uint256",
          "name": "_width",
          "type": "uint256"
        }
      ],
      "name": "AreaOfARectangle",
      "outputs": [
        {
          "internalType": "uint256",
          "name": "",
          "type": "uint256"
        }
      ],
      "stateMutability": "nonpayable",
      "type": "function"
    },
    {
      "inputs": [
        {
          "internalType": "uint256",
          "name": "_numberOfSides",
          "type": "uint256"
        }
      ],
      "name": "AreaOfASquare",
      "outputs": [
        {
          "internalType": "uint256",
          "name": "AreaOf",
          "type": "uint256"
        }
      ],
      "stateMutability": "nonpayable",
      "type": "function"
    },
    {
      "inputs": [
        {
          "internalType": "uint256",
          "name": "_base",
          "type": "uint256"
        },
        {
          "internalType": "uint256",
          "name": "_height",
          "type": "uint256"
        }
      ],
      "name": "AreaOfATriangle",
      "outputs": [
        {
          "internalType": "uint256",
          "name": "AreaOf",
          "type": "uint256"
        }
      ],
      "stateMutability": "nonpayable",
      "type": "function"
    },
    {
      "inputs": [],
      "name": "base",
      "outputs": [
        {
          "internalType": "uint256",
          "name": "",
          "type": "uint256"
        }
      ],
      "stateMutability": "view",
      "type": "function"
    },
    {
      "inputs": [],
      "name": "height",
      "outputs": [
        {
          "internalType": "uint256",
          "name": "",
          "type": "uint256"
        }
      ],
      "stateMutability": "view",
      "type": "function"
    },
    {
      "inputs": [],
      "name": "length",
      "outputs": [
        {
          "internalType": "uint256",
          "name": "",
          "type": "uint256"
        }
      ],
      "stateMutability": "view",
      "type": "function"
    },
    {
      "inputs": [],
      "name": "numberOfSides",
      "outputs": [
        {
          "internalType": "uint256",
          "name": "",
          "type": "uint256"
        }
      ],
      "stateMutability": "view",
      "type": "function"
    },
    {
      "inputs": [],
      "name": "width",
      "outputs": [
        {
          "internalType": "uint256",
          "name": "",
          "type": "uint256"
        }
      ],
      "stateMutability": "view",
      "type": "function"
    }
  ],
  "bytecode": "0x608060405234801561001057600080fd5b506105b6806100206000396000f3fe608060405234801561001057600080fd5b50600436106100885760003560e01c80635001f3b51161005b5780635001f3b51461011757806374d05a58146101355780639ededf7714610165578063f5afe4dc1461018357610088565b80630ef267431461008d5780631f376b53146100ab5780631f7b6d32146100c9578063295a2ec4146100e7575b600080fd5b6100956101b3565b6040516100a2919061026b565b60405180910390f35b6100b36101b9565b6040516100c0919061026b565b60405180910390f35b6100d16101bf565b6040516100de919061026b565b60405180910390f35b61010160048036038101906100fc91906102b7565b6101c5565b60405161010e919061026b565b60405180910390f35b61011f6101f9565b60405161012c919061026b565b60405180910390f35b61014f600480360381019061014a91906102f7565b6101ff565b60405161015c919061026b565b60405180910390f35b61016d61021e565b60405161017a919061026b565b60405180910390f35b61019d600480360381019061019891906102b7565b610224565b6040516101aa919061026b565b60405180910390f35b60015481565b60045481565b60025481565b6000826000819055508160018190555060026001546000546101e79190610353565b6101f191906103c4565b905092915050565b60005481565b60008160048190555060026004546102179190610535565b9050919050565b60035481565b6000826002819055508160038190555060006003546002546102469190610353565b90508091505092915050565b6000819050919050565b61026581610252565b82525050565b6000602082019050610280600083018461025c565b92915050565b600080fd5b61029481610252565b811461029f57600080fd5b50565b6000813590506102b18161028b565b92915050565b600080604083850312156102ce576102cd610286565b5b60006102dc858286016102a2565b92505060206102ed858286016102a2565b9150509250929050565b60006020828403121561030d5761030c610286565b5b600061031b848285016102a2565b91505092915050565b7f4e487b7100000000000000000000000000000000000000000000000000000000600052601160045260246000fd5b600061035e82610252565b915061036983610252565b925082820261037781610252565b9150828204841483151761038e5761038d610324565b5b5092915050565b7f4e487b7100000000000000000000000000000000000000000000000000000000600052601260045260246000fd5b60006103cf82610252565b91506103da83610252565b9250826103ea576103e9610395565b5b828204905092915050565b60008160011c9050919050565b6000808291508390505b600185111561044c5780860481111561042857610427610324565b5b60018516156104375780820291505b8081029050610445856103f5565b945061040c565b94509492505050565b6000826104655760019050610521565b816104735760009050610521565b81600181146104895760028114610493576104c2565b6001915050610521565b60ff8411156104a5576104a4610324565b5b8360020a9150848211156104bc576104bb610324565b5b50610521565b5060208310610133831016604e8410600b84101617156104f75782820a9050838111156104f2576104f1610324565b5b610521565b6105048484846001610402565b9250905081840481111561051b5761051a610324565b5b81810290505b9392505050565b600060ff82169050919050565b600061054082610252565b915061054b83610528565b92506105787fffffffffffffffffffffffffffffffffffffffffffffffffffffffffffffffff8484610455565b90509291505056fea2646970667358221220c3166125cd657e3588a4da3de42228a77ceebadf861fae6d70c465ae526e966a64736f6c63430008180033",
  "linkReferences": {},
  "deployedLinkReferences": {}
}